:020000040000FA
:020000003028A6
:040002000034003492
:08000800F000030EF1000B19DA
:100010005B208C1A5220710E8300F00E700E0900C6
:10006000031761308F00831687018801890103130C
:100070001930990080308800F030850040308C00C5
:100080008430810083123630F7003030F5000130C3
:10009000F600A320741490309800E4308B00741C98
:1000A00072204F28981855285728181218161A0821
:1000B000AF208C12080085017708840000088800B2
:1000C000760885000310F60DF70A3A307702031C14
:1000D0006E286A280130F6003630F7000B116430C4
:1000E00081000800BE20F200F0307205F3000F30EE
:1000F000F205D030730203197E2008007208C72071
:10010000F2000030720203199A28FF3072020319BC
:100110008A2890289D2078088400720880009B28F7
:100120003A3078020318A32078088400720880000F
:10013000F80A9B28A3200B10080036307802031918
:100140000800F803080036308400FF308000840A7D
:100150003A300402031CA5283630F8000800F200EB
:10016000353075020319B528B7283030F500750809
:10017000840072088000F50A74100800F503750801
:1001800084003030750203197414000808008207D7
:1001900000344034FF342134F83480349834C63489
:1001A0009934923482348334F934243430348834AA
:02400E00C423C9
:02401000FF3F70
:00000001FF
