:020000040000FA
:020000003028A6
:040002000034003492
:08000800F000030EF1000B18DB
:0C0010005820710E8300F00E700E0900E5
:10006000031761308F00831687018801890103130C
:1000700020309800193099000F30860096008330A8
:10008000810083123030F3007214F030860080302B
:10009000980088308B0072184B284F204B288B110A
:1000A000A72099008316981C532883128B150800EB
:1000B000B0208120761908000310F50DF50D7608A3
:1000C000F507D03075079820F03086004F200618CD
:1000D00067288618692806196B2886196D280B1061
:1000E00008000030F60006180800F60A8618080016
:1000F000F60A06190800F60A861908000430F60008
:1001000008000030F500103086007120761D0800D0
:10011000860DF50A7120761D0800860DF50A7120FE
:10012000761D0800860DF50A7120761D080008006E
:10013000F4004030730203199E28A0283030F300E9
:100140007308840074088000F30A72100800F30337
:100150007308840030307302031972140008080019
:0A0160000B1181010B1DB2280800ED
:02400E00C423C9
:02401000FF3F70
:00000001FF
